{\\\"number\\\":\\\"0x3d99e4\\\",\\\"hash\\\":\\\"0x72318ca0b74c1642e68deb31857e4fc49603599403e2344ea495e07d7309ca7f\\\",\\\"parentHash\\\":\\\"0x5d708ef75d9404cbba8662374558876df744aa86ad543ef7aee14fddf6c18cb0\\\",\\\"nonce\\\":\\\"0x0000000000000000\\\",\\\"sha3Uncles\\\":\\\"0x1dcc4de8dec75d7aab85b567b6ccd41ad312451b948a7413f0a142fd40d49347\\\",\\\"logsBloom\\\":\\\"0x00000000000000000000000000000000000000000001000000000000000000000000000000000000000000000000000000000000000000000000000000000000000000000000000000000000000000000000000000000000000000001000000000000000020000000000000000000800000000000000000000000000000000000000000000000000000000000000000000000000000000100000000000000000000000000010000000000000000000002000000000000000000000000000000000000000000000000000000000000000000000000000000000000000000020000000000000000000000000000000008000000000000000000000000000000000\\\",\\\"transactionsRoot\\\":\\\"0x68f631df57e14faf8e2b59140c3555c3c403132c6e8045ad5b737f464e6d4c4e\\\",\\\"stateRoot\\\":\\\"0x0c1be5346a6b6e6f8355a9eac79ed44541968bd09cd7107f9ae2a269369b2e2f\\\",\\\"receiptsRoot\\\":\\\"0xd2832838a8fb1d143f76ab2286a9ce27452985a9471736828d343b8462b5ce9a\\\",\\\"miner\\\":\\\"0x6f2ae3c929ee70563fb526353143878f531f5d68\\\",\\\"difficulty\\\":\\\"0x1\\\",\\\"totalDifficulty\\\":\\\"0x3d99e5\\\",\\\"extraData\\\":\\\"0xf90144a00000000000000000000000000000000000000000000000000000000000000000f854940e658a450e84a410ece9aa6134e175d5ea4cc3f9946f2ae3c929ee70563fb526353143878f531f5d68948362891f484e8e75776790ee08d151e62742bfc394dd6548fc245e6fd0b0560db61f39a56a94703fb7c001f8c9b8412caa53a0a76570cc1b9bb7faf20ade4ebf3eaab727d704306f6ec3162bc94b6875e2814c51376b3941c8ad5d2971dc06f98a15d8df6b20e963fa40586df50f7c01b8416c8023870c050a9c5b6dc103060e580a64d8d15c4894c5ba8d485081fa45b1eb2f9d754ba5029cd39d76c1f8453757d5f6b945bcc592fdb890679f0af50e34ae00b841c631f13a25a74afec2f00de8d5f8c1099ebabad10d76cb7f4d998ce6b2e6acd5455d37cebd5ba17497988781da22c9739194cd80bc5947fcfe5a5dab929323ab01\\\",\\\"size\\\":\\\"0x51c\\\",\\\"gasLimit\\\":\\\"0x1fffffffffffff\\\",\\\"gasUsed\\\":\\\"0x7d8c\\\",\\\"timestamp\\\":\\\"0x68b131b3\\\"}












\\\"0xf90292822080b9028cf9028901827d8cb9010000000000000000000000000000000000000000000001000000000000000000000000000000000000000000000000000000000000000000000000000000000000000000000000000000000000000000000000000000000000000000001000000000000000020000000000000000000800000000000000000000000000000000000000000000000000000000000000000000000000000000100000000000000000000000000010000000000000000000002000000000000000000000000000000000000000000000000000000000000000000000000000000000000000000020000000000000000000000000000000008000000000000000000000000000000000f9017ff9017c94d43208d41558a004cb6f481b82bf707490d57015f842a077d8f5088b77499cc44d4807faadc1dee5bf6d0cbf057f5cebda748655a9a9eda00000000000000000000000000000000000000000000000000000000000000000b90120000000000000000000000000000000000000000000000000000000000000002000000000000000000000000000000000000000000000000000000000000000d400000000000000000378e8f8470c08ff0a6f8d8dc5dabd353d613a83c734029a294f6cb4513d651dc3322e459dc0edd4f2e961610000000000000000000000003a8d85ca697a8342c2c3de22e9ceabe340538ecc000000000000000000000000f3a449bf1794eac1cd036a38656f8f6284cdb1af000000000000000000000000016725ee40d417eb5b10e16a0aab6abd0bdcbfe100000000000000000000000039eb0fc580fc1d42f9a7a45e58f430664cd9041f00000000000000000000000000000000000000000000000000000000000000c7000000000000000000000000\\\"
\\\"0xf903cd822080b903c7f903c40183010983b9010000000200000000000000000000000000400000000000400000000000000000001000000000000000048000000000000000000000000000000000000000200000000000000000000000000008000000008000000000000000000800001000000000000000020000000000000000000800000000000080000000000010000000000000000002000000000000020000000000001000000000000400000000000000000000000010000000000000000000002000000000000000000000000000000000000002004000800000000000000000000000000000000000000000000020000000000000000000000000000001000000000000000000000000000000800000f902b9f89b94dfbd4cee2b33e85a014c3850ed60970764379911f863a0ddf252ad1be2c89b69c2b068fc378daa952ba7f163c4a11628f55a4df523b3efa00000000000000000000000002caa454e16d8b918d8e05f2083328edb48831cb4a00000000000000000000000000000000000000000000000000000000000000000a000000000000000000000000000000000000000000000000000000000000003e8f9017c942d4af432cabab5afcb584f08443a77ce54795f59f842a077d8f5088b77499cc44d4807faadc1dee5bf6d0cbf057f5cebda748655a9a9eda00000000000000000000000000000000000000000000000000000000000000009b90120000000000000000000000000000000000000000000000000000000000000002000000000000000000000000000000000000000000000000000000000000000d400000000000000090378dfbd4cee2b33e85a014c3850ed60970764379911029a0c55cfe1710fea1dd3d06254c86d79a44346c41c000000000000000000000000cf197dfbcdc4718bc077e32e6e2e38905a67f0500000000000000000000000000e0054fb3d67d7724e292445e4c06d565e0ea74b000000000000000000000000f8802987a671c8d00ffef23fbfb365c4feca76670000000000000000000000002caa454e16d8b918d8e05f2083328edb48831cb400000000000000000000000000000000000000000000000000000000000003e8000000000000000000000000f89b94dfbd4cee2b33e85a014c3850ed60970764379911f863a06337ed398c0e8467698c581374fdce4db14922df487b5a39483079f5f59b60a4a00000000000000000000000000e0054fb3d67d7724e292445e4c06d565e0ea74ba00000000000000000000000002caa454e16d8b918d8e05f2083328edb48831cb4a000000000000000000000000000000000000000000000000000000000000003e8\\\"



6f2ae3c929ee70563fb526353143878f531f5d68
000000000000000d0378dfbd4cee2b33e85a014c3850ed60970764379911029a0c55cfe1710fea1dd3d06254c86d79a44346c41c000000000000000000000000cf197dfbcdc4718bc077e32e6e2e38905a67f0500000000000000000000000000e0054fb3d67d7724e292445e4c06d565e0ea74b000000000000000000000000f8802987a671c8d00ffef23fbfb365c4feca76670000000000000000000000002caa454e16d8b918d8e05f2083328edb48831cb400000000000000000000000000000000000000000000000000000000000003e8



dfbd4cee2b33e85a014c3850ed60970764379911
ed60970764379911000000000000000000000000


0x00000000000000
0d
0378
dfbd4cee2b33e85a014c3850
ed60970764379911000000000000000000000000
029a
0c55cfe1710fea1dd3d06254c86d79a44346c41c
000000000000000000000000cf197dfbcdc4718bc077e32e6e2e38905a67f0500
000000000000000000000000e0054fb3d67d7724e292445e4c06d565e0ea74b000000000000000000000000f8802987a671c8d00ffef23fbfb365c4feca76670000000000000000000000002caa454e16d8b918d8e05f2083328edb48831cb400000000000000000000000000000000000000000000000000000000000003e8


9dc0eDd4F2E96161

0x00000000000000
00
0378
294f6cb4513d651dc3322e45
9dc0edd4f2e96161000000000000000000000000
0000
dfbd4cee2b33e85a014c3850ed60970764379911
000000000000000000000000e46b183c551bb3df4f72a33a52bc5c8f6f51183c00000000000000000000000000000000000000000000000000000000000003e8





0xf903cd822080b903c702f903c30182f53cb90100000002040000000000000000000000000000000000200000000000000000000000000000000000000400000000000000000000000200000000000000000080000000000c0000000000000008000000000000000000000000000800001000000000000000020000000000000000000800000000000000000000000010000000000000000000000000000000000000800000000000000000000000000000000000000020000010000000000400000000002000000000800000000000000000400000000002000000000000000000000000000000000000000000000000000020000000000000000080000000400000001000000000000000000000008000000000f902b9f89b940d4920526971c6c3ef26099b6a9d84bbdba62fedf863a0ddf252ad1be2c89b69c2b068fc378daa952ba7f163c4a11628f55a4df523b3efa00000000000000000000000000afa1be588c27ff273728b8731f6b36cde38c694a00000000000000000000000000000000000000000000000000000000000000000a00000000000000000000000000000000000000000000000000000000000001388f9017c942bc6c67d532a54b842299bdfe3292f0349b6101af842a077d8f5088b77499cc44d4807faadc1dee5bf6d0cbf057f5cebda748655a9a9eda00000000000000000000000000000000000000000000000000000000000000003b90120000000000000000000000000000000000000000000000000000000000000002000000000000000000000000000000000000000000000000000000000000000d4000000000000000303090d4920526971c6c3ef26099b6a9d84bbdba62fed029a0c55cfe1710fea1dd3d06254c86d79a44346c41c000000000000000000000000cf197dfbcdc4718bc077e32e6e2e38905a67f0500000000000000000000000006308a2620aacdce70bd5bf028c19c01197b65e5b0000000000000000000000009e56e9cc7ee1707e8bb6445f350432855a25f33a0000000000000000000000000afa1be588c27ff273728b8731f6b36cde38c6940000000000000000000000000000000000000000000000000000000000001388000000000000000000000000f89b940d4920526971c6c3ef26099b6a9d84bbdba62fedf863a06337ed398c0e8467698c581374fdce4db14922df487b5a39483079f5f59b60a4a00000000000000000000000006308a2620aacdce70bd5bf028c19c01197b65e5ba00000000000000000000000000afa1be588c27ff273728b8731f6b36cde38c694a00000000000000000000000000000000000000000000000000000000000001388


00000000000000000000
00000000000000000000
00000000000000000000
00200000000000000000
00000000000000000000
00000000000000000000
000000d4
0000000000000001
029a
e8f8470c08ff0a6f8d8dc5dabd353d613a83c734
029a
0c55cfe1710fea1dd3d06254c86d79a44346c41c
0000000000000000000000003a8d85ca697a8342c2c3de22e9ceabe340538ecc000000000000000000000000f3a449bf1794eac1cd036a38656f8f6284cdb1af000000000000000000000000016725ee40d417eb5b10e16a0aab6abd0bdcbfe100000000000000000000000039eb0fc580fc1d42f9a7a45e58f430664cd9041f00000000000000000000000000000000000000000000000000000000000000c7000000000000000000000000



00000000000000000000
00000000000000000000
00000000000000000000
00200000000000000000
00000000000000000000
00000000000000000000
000000d4
0000000000000003
0309
0d4920526971c6c3ef26099b6a9d84bbdba62fed
029a
0c55cfe1710fea1dd3d06254c86d79a44346c41c
000000000000000000000000cf197dfbcdc4718bc077e32e6e2e38905a67f0500000000000000000000000006308a2620aacdce70bd5bf028c19c01197b65e5b
000000000000000000000000
9e56e9cc7ee1707e8bb6445f350432855a25f33a0000000000000000000000000afa1be588c27ff273728b8731f6b36cde38c6940000000000000000000000000000000000000000000000000000000000001388000000000000000000000000


9e56e9cc7ee1707e8bb6445f350432855a25f33a

00000000000000000000
00000000000000000000
00000000000000000000
00000000000000000000
00200000000000000000
00000000000000000000
00000000000000000000
000000d4
0000000000000009
0309
0d4920526971c6c3ef26099b6a9d84bbdba62fed
029a
0c55cfe1710fea1dd3d06254c86d79a44346c41c
000000000000000000000000cf197dfbcdc4718bc077e32e6e2e38905a67f0500000000000000000000000006308a2620aacdce70bd5bf028c19c01197b65e5b
000000000000000000000000
000000000000000cf197dfbcdc4718bc077e32e60000000000000000000000009e56e9cc7ee1707e8bb6445f350432b55a25f33a00000000000000000000000000000000000000000000000000000000000003e8000000000000000000000000




000000000000000cf197dfbcdc4718bc077e32e6